{
  "contractName": "BTM",
  "abi": [
    {
      "constant": false,
      "inputs": [
        {
          "name": "blockAccount",
          "type": "address"
        },
        {
          "name": "amount",
          "type": "int256"
        }
      ],
      "name": "setBalance",
      "outputs": [],
      "payable": false,
      "stateMutability": "nonpayable",
      "type": "function"
    },
    {
      "constant": false,
      "inputs": [
        {
          "name": "blockAccount",
          "type": "address"
        },
        {
          "name": "addAmount",
          "type": "int256"
        }
      ],
      "name": "addBalance",
      "outputs": [],
      "payable": false,
      "stateMutability": "nonpayable",
      "type": "function"
    },
    {
      "constant": false,
      "inputs": [
        {
          "name": "fromAccount",
          "type": "address"
        },
        {
          "name": "toAccount",
          "type": "address"
        },
        {
          "name": "amount",
          "type": "int256"
        }
      ],
      "name": "startTransfer",
      "outputs": [
        {
          "name": "",
          "type": "bool"
        }
      ],
      "payable": false,
      "stateMutability": "nonpayable",
      "type": "function"
    },
    {
      "constant": true,
      "inputs": [
        {
          "name": "blockAccount",
          "type": "address"
        }
      ],
      "name": "getBalance",
      "outputs": [
        {
          "name": "",
          "type": "int256"
        }
      ],
      "payable": false,
      "stateMutability": "view",
      "type": "function"
    },
    {
      "anonymous": false,
      "inputs": [
        {
          "indexed": false,
          "name": "result",
          "type": "bool"
        }
      ],
      "name": "finishTransfer",
      "type": "event"
    }
  ],
  "bytecode": "0x6060604052341561000f57600080fd5b6103fc8061001e6000396000f300606060405260043610610062576000357c0100000000000000000000000000000000000000000000000000000000900463ffffffff1680632b12d30814610067578063342dff5a146100a9578063783d2cfc146100eb578063f8b2cb4f14610164575b600080fd5b341561007257600080fd5b6100a7600480803573ffffffffffffffffffffffffffffffffffffffff169060200190919080359060200190919050506101b1565b005b34156100b457600080fd5b6100e9600480803573ffffffffffffffffffffffffffffffffffffffff169060200190919080359060200190919050506101f8565b005b34156100f657600080fd5b61014a600480803573ffffffffffffffffffffffffffffffffffffffff1690602001909190803573ffffffffffffffffffffffffffffffffffffffff16906020019091908035906020019091905050610248565b604051808215151515815260200191505060405180910390f35b341561016f57600080fd5b61019b600480803573ffffffffffffffffffffffffffffffffffffffff169060200190919050506102fb565b6040518082815260200191505060405180910390f35b806000808473ffffffffffffffffffffffffffffffffffffffff1673ffffffffffffffffffffffffffffffffffffffff168152602001908152602001600020819055505050565b806000808473ffffffffffffffffffffffffffffffffffffffff1673ffffffffffffffffffffffffffffffffffffffff168152602001908152602001600020600082825401925050819055505050565b60008060006102578685610343565b9150610263858561038b565b905081801561026f5750805b156102b5577f2bf58d4366d9ebc5a333b0fab3784fa60b41cd13964659eb902856040a4473ea6001604051808215151515815260200191505060405180910390a16102f2565b7f2bf58d4366d9ebc5a333b0fab3784fa60b41cd13964659eb902856040a4473ea6000604051808215151515815260200191505060405180910390a15b50509392505050565b60008060008373ffffffffffffffffffffffffffffffffffffffff1673ffffffffffffffffffffffffffffffffffffffff168152602001908152602001600020549050919050565b6000806000610351856102fb565b915061036085856000036101f8565b610369856102fb565b905083818303141561037e5760019250610383565b600092505b505092915050565b6000806000610399856102fb565b91506103a585856101f8565b6103ae856102fb565b90508382820314156103c357600192506103c8565b600092505b5050929150505600a165627a7a723058203481c1fb69616e1378145b170533cdcab175b663416fcd45730160814dabf9e90029",
  "source": "pragma solidity ^ 0.4.17;\n\ncontract BTM{\n    mapping(address => int256) private balanceOf;//每个区块链账户的余额\n\n    //设置区块链帐户余额 [允许合约内外调用]\n    function setBalance(address blockAccount, int256 amount)external{\n        balanceOf[blockAccount] = amount;\n    }\n    //设置区块链帐户余额,传入账户余额已经要加的数额,如200,-500... addAmount是一个带符号整数 [允许合约内外调用]\n    function addBalance(address blockAccount, int256 addAmount)public{\n        balanceOf[blockAccount] += addAmount;\n\n    }\n    //返回区块链帐户余额 [可在合约内外调用]\n    function getBalance(address blockAccount)public view returns(int256) {\n        return balanceOf[blockAccount];\n    }\n    //ATM->Blockchain,传入扣款账户，收款账户，数额，返回扣款结果 ［无论是存款，取款还是转帐，实际上都是两个区块链之间账户资产的转移］\n    function startTransfer(address fromAccount, address toAccount, int256 amount)external returns(bool){\n        bool debitResult = executeDebit(fromAccount, amount);\n        bool creditResult = executeCredit(toAccount, amount);\n        if (debitResult && creditResult) {\n            finishTransfer(true);//交易成功\n        } else {\n            finishTransfer(false);//交易失败，暂且不处理失败\n        }\n    }\n\n    //ATM->Blockchain,传入扣款账户，扣款数额；执行减去扣款账户数额的动作，返回扣款结果\n    function executeDebit(address fromAccount, int256 amount) internal returns(bool){\n        int256 beforeAmount = getBalance(fromAccount);\n        addBalance(fromAccount, 0 - amount);//传入负数\n        int256 afterAmount = getBalance(fromAccount);\n        if (beforeAmount - afterAmount == amount) {\n            return true;//扣款成功\n        } else {\n            return false;\n        }\n    }\n    //ATM->Blockchain,传入收款账户，收款数额；执行增加收款账户数额的动作，返回收款结果\n    function executeCredit(address toAccount, int256 amount) internal returns(bool){\n        int256 beforeAmount = getBalance(toAccount);\n        addBalance(toAccount, amount);//传入整数\n        int256 afterAmount = getBalance(toAccount);\n        if (afterAmount - beforeAmount == amount) {\n            return true;//收款成功\n        } else {\n            return false;\n        }\n    }\n    //Blockchain->ATM,通知操作ATM结束交易\n    event finishTransfer(bool result);\n}",
  "sourcePath": "/Users/oueikun/Desktop/BlockchainATM/contracts/BTM.sol",
  "compiler": {
    "name": "solc",
    "version": "0.4.18+commit.9cf6e910.Emscripten.clang"
  },
  "schemaVersion": "1.0.1",
  "updatedAt": "2018-02-27T02:20:48.928Z"
}