{
  "contractName": "BTM",
  "abi": [
    {
      "constant": false,
      "inputs": [
        {
          "name": "_fromAtm",
          "type": "address"
        },
        {
          "name": "_debitBank",
          "type": "address"
        },
        {
          "name": "_creditBank",
          "type": "address"
        },
        {
          "name": "_trxHash",
          "type": "string"
        },
        {
          "name": "_amount",
          "type": "int256"
        },
        {
          "name": "_fee",
          "type": "int256"
        },
        {
          "name": "_feeFrDebitBank",
          "type": "bool"
        },
        {
          "name": "_status",
          "type": "int256"
        }
      ],
      "name": "confirmCredit",
      "outputs": [],
      "payable": false,
      "stateMutability": "nonpayable",
      "type": "function"
    },
    {
      "constant": true,
      "inputs": [],
      "name": "getDate",
      "outputs": [
        {
          "name": "a",
          "type": "uint256"
        }
      ],
      "payable": false,
      "stateMutability": "view",
      "type": "function"
    },
    {
      "constant": false,
      "inputs": [
        {
          "name": "_bankAdd",
          "type": "address"
        },
        {
          "name": "_atmAdd",
          "type": "address[]"
        }
      ],
      "name": "setBankATM",
      "outputs": [],
      "payable": false,
      "stateMutability": "nonpayable",
      "type": "function"
    },
    {
      "constant": false,
      "inputs": [
        {
          "name": "_fromAtm",
          "type": "address"
        },
        {
          "name": "_debitBank",
          "type": "address"
        },
        {
          "name": "_creditBank",
          "type": "address"
        },
        {
          "name": "_trxHash",
          "type": "string"
        },
        {
          "name": "_amount",
          "type": "int256"
        },
        {
          "name": "_fee",
          "type": "int256"
        }
      ],
      "name": "startTrx",
      "outputs": [],
      "payable": false,
      "stateMutability": "nonpayable",
      "type": "function"
    },
    {
      "constant": true,
      "inputs": [],
      "name": "owner",
      "outputs": [
        {
          "name": "",
          "type": "address"
        }
      ],
      "payable": false,
      "stateMutability": "view",
      "type": "function"
    },
    {
      "constant": true,
      "inputs": [
        {
          "name": "_bankAdd",
          "type": "address"
        }
      ],
      "name": "getBankAtms",
      "outputs": [
        {
          "name": "s",
          "type": "address[]"
        }
      ],
      "payable": false,
      "stateMutability": "view",
      "type": "function"
    },
    {
      "constant": true,
      "inputs": [],
      "name": "myBalance",
      "outputs": [
        {
          "name": "",
          "type": "int256"
        }
      ],
      "payable": false,
      "stateMutability": "view",
      "type": "function"
    },
    {
      "constant": false,
      "inputs": [
        {
          "name": "anAccount",
          "type": "address"
        },
        {
          "name": "_amount",
          "type": "int256"
        }
      ],
      "name": "changeBalance",
      "outputs": [],
      "payable": false,
      "stateMutability": "nonpayable",
      "type": "function"
    },
    {
      "constant": false,
      "inputs": [
        {
          "name": "_fromAtm",
          "type": "address"
        },
        {
          "name": "_debitBank",
          "type": "address"
        },
        {
          "name": "_creditBank",
          "type": "address"
        },
        {
          "name": "_trxHash",
          "type": "string"
        },
        {
          "name": "_amount",
          "type": "int256"
        },
        {
          "name": "_fee",
          "type": "int256"
        },
        {
          "name": "_status",
          "type": "int256"
        }
      ],
      "name": "confirmDebit",
      "outputs": [],
      "payable": false,
      "stateMutability": "nonpayable",
      "type": "function"
    },
    {
      "constant": false,
      "inputs": [
        {
          "name": "newOwner",
          "type": "address"
        }
      ],
      "name": "transferOwnership",
      "outputs": [],
      "payable": false,
      "stateMutability": "nonpayable",
      "type": "function"
    },
    {
      "constant": true,
      "inputs": [
        {
          "name": "_add",
          "type": "address"
        }
      ],
      "name": "getBalance",
      "outputs": [
        {
          "name": "",
          "type": "int256"
        }
      ],
      "payable": false,
      "stateMutability": "view",
      "type": "function"
    },
    {
      "inputs": [],
      "payable": false,
      "stateMutability": "nonpayable",
      "type": "constructor"
    },
    {
      "anonymous": false,
      "inputs": [
        {
          "indexed": false,
          "name": "_fromAtm",
          "type": "address"
        },
        {
          "indexed": false,
          "name": "_debitBank",
          "type": "address"
        },
        {
          "indexed": false,
          "name": "_creditBank",
          "type": "address"
        },
        {
          "indexed": false,
          "name": "_trxHash",
          "type": "string"
        },
        {
          "indexed": false,
          "name": "_amount",
          "type": "int256"
        },
        {
          "indexed": false,
          "name": "_fee",
          "type": "int256"
        },
        {
          "indexed": false,
          "name": "_status",
          "type": "int256"
        }
      ],
      "name": "Commit",
      "type": "event"
    },
    {
      "anonymous": false,
      "inputs": [
        {
          "indexed": false,
          "name": "_fromAtm",
          "type": "address"
        },
        {
          "indexed": false,
          "name": "_debitBankAtm",
          "type": "address"
        },
        {
          "indexed": false,
          "name": "_debitBank",
          "type": "address"
        },
        {
          "indexed": false,
          "name": "_creditBank",
          "type": "address"
        },
        {
          "indexed": false,
          "name": "_trxHash",
          "type": "string"
        },
        {
          "indexed": false,
          "name": "_amount",
          "type": "int256"
        },
        {
          "indexed": false,
          "name": "_fee",
          "type": "int256"
        }
      ],
      "name": "CheckDebit",
      "type": "event"
    },
    {
      "anonymous": false,
      "inputs": [
        {
          "indexed": false,
          "name": "_fromAtm",
          "type": "address"
        },
        {
          "indexed": false,
          "name": "_debitBank",
          "type": "address"
        },
        {
          "indexed": false,
          "name": "_creditBankAtm",
          "type": "address"
        },
        {
          "indexed": false,
          "name": "_creditBank",
          "type": "address"
        },
        {
          "indexed": false,
          "name": "_trxHash",
          "type": "string"
        },
        {
          "indexed": false,
          "name": "_amount",
          "type": "int256"
        },
        {
          "indexed": false,
          "name": "_fee",
          "type": "int256"
        }
      ],
      "name": "CheckCredit",
      "type": "event"
    }
  ],
  "bytecode": "0x6060604052341561000f57600080fd5b336000806101000a81548173ffffffffffffffffffffffffffffffffffffffff021916908373ffffffffffffffffffffffffffffffffffffffff1602179055506112028061005e6000396000f3006060604052600436106100af576000357c0100000000000000000000000000000000000000000000000000000000900463ffffffff1680630ab3ae64146100b4578063430fe9c11461019457806344d4db8b146101bd5780638723a1811461020a5780638da5cb5b146102a7578063c5ca75b7146102fc578063c9116b691461038a578063da75bb94146103b3578063ecdfce9e146103f5578063f2fde38b1461049b578063f8b2cb4f146104d4575b600080fd5b34156100bf57600080fd5b610192600480803573ffffffffffffffffffffffffffffffffffffffff1690602001909190803573ffffffffffffffffffffffffffffffffffffffff1690602001909190803573ffffffffffffffffffffffffffffffffffffffff1690602001909190803590602001908201803590602001908080601f016020809104026020016040519081016040528093929190818152602001838380828437820191505050505050919080359060200190919080359060200190919080351515906020019091908035906020019091905050610521565b005b341561019f57600080fd5b6101a7610813565b6040518082815260200191505060405180910390f35b34156101c857600080fd5b610208600480803573ffffffffffffffffffffffffffffffffffffffff16906020019091908035906020019082018035906020019190919290505061081b565b005b341561021557600080fd5b6102a5600480803573ffffffffffffffffffffffffffffffffffffffff1690602001909190803573ffffffffffffffffffffffffffffffffffffffff1690602001909190803573ffffffffffffffffffffffffffffffffffffffff1690602001909190803590602001908201803590602001919091929080359060200190919080359060200190919050506108ca565b005b34156102b257600080fd5b6102ba610a12565b604051808273ffffffffffffffffffffffffffffffffffffffff1673ffffffffffffffffffffffffffffffffffffffff16815260200191505060405180910390f35b341561030757600080fd5b610333600480803573ffffffffffffffffffffffffffffffffffffffff16906020019091905050610a37565b6040518080602001828103825283818151815260200191508051906020019060200280838360005b8381101561037657808201518184015260208101905061035b565b505050509050019250505060405180910390f35b341561039557600080fd5b61039d610b65565b6040518082815260200191505060405180910390f35b34156103be57600080fd5b6103f3600480803573ffffffffffffffffffffffffffffffffffffffff16906020019091908035906020019091905050610bac565b005b341561040057600080fd5b610499600480803573ffffffffffffffffffffffffffffffffffffffff1690602001909190803573ffffffffffffffffffffffffffffffffffffffff1690602001909190803573ffffffffffffffffffffffffffffffffffffffff169060200190919080359060200190820180359060200191909192908035906020019091908035906020019091908035906020019091905050610cc6565b005b34156104a657600080fd5b6104d2600480803573ffffffffffffffffffffffffffffffffffffffff16906020019091905050610eca565b005b34156104df57600080fd5b61050b600480803573ffffffffffffffffffffffffffffffffffffffff16906020019091905050610f68565b6040518082815260200191505060405180910390f35b6103e88114156106b95783600160008973ffffffffffffffffffffffffffffffffffffffff1673ffffffffffffffffffffffffffffffffffffffff1681526020019081526020016000206000828254039250508190555083600160008873ffffffffffffffffffffffffffffffffffffffff1673ffffffffffffffffffffffffffffffffffffffff16815260200190815260200160002060008282540192505081905550811561061d5782600160008973ffffffffffffffffffffffffffffffffffffffff1673ffffffffffffffffffffffffffffffffffffffff1681526020019081526020016000206000828254039250508190555061066b565b82600160008873ffffffffffffffffffffffffffffffffffffffff1673ffffffffffffffffffffffffffffffffffffffff168152602001908152602001600020600082825403925050819055505b82600160008a73ffffffffffffffffffffffffffffffffffffffff1673ffffffffffffffffffffffffffffffffffffffff168152602001908152602001600020600082825401925050819055505b7fca2a3cb5c30d06f2e2e1a3670f9f5612ed124bf7cf7806b91f6c14f6d615188c88888888888887604051808873ffffffffffffffffffffffffffffffffffffffff1673ffffffffffffffffffffffffffffffffffffffff1681526020018773ffffffffffffffffffffffffffffffffffffffff1673ffffffffffffffffffffffffffffffffffffffff1681526020018673ffffffffffffffffffffffffffffffffffffffff1673ffffffffffffffffffffffffffffffffffffffff16815260200180602001858152602001848152602001838152602001828103825286818151815260200191508051906020019080838360005b838110156107c95780820151818401526020810190506107ae565b50505050905090810190601f1680156107f65780820380516001836020036101000a031916815260200191505b509850505050505050505060405180910390a15050505050505050565b600042905090565b6000809054906101000a900473ffffffffffffffffffffffffffffffffffffffff1673ffffffffffffffffffffffffffffffffffffffff163373ffffffffffffffffffffffffffffffffffffffff1614151561087657600080fd5b8181600260008673ffffffffffffffffffffffffffffffffffffffff1673ffffffffffffffffffffffffffffffffffffffff16815260200190815260200160002091906108c49291906110df565b50505050565b60006108d58761100c565b90507fe478cad886b9bbd175f972f26edbd2205ec3e1ddfdd6f13519c38cc9ab7795d98882898989898989604051808973ffffffffffffffffffffffffffffffffffffffff1673ffffffffffffffffffffffffffffffffffffffff1681526020018873ffffffffffffffffffffffffffffffffffffffff1673ffffffffffffffffffffffffffffffffffffffff1681526020018773ffffffffffffffffffffffffffffffffffffffff1673ffffffffffffffffffffffffffffffffffffffff1681526020018673ffffffffffffffffffffffffffffffffffffffff1673ffffffffffffffffffffffffffffffffffffffff1681526020018060200184815260200183815260200182810382528686828181526020019250808284378201915050995050505050505050505060405180910390a15050505050505050565b6000809054906101000a900473ffffffffffffffffffffffffffffffffffffffff1681565b610a3f61117f565b6000809054906101000a900473ffffffffffffffffffffffffffffffffffffffff1673ffffffffffffffffffffffffffffffffffffffff163373ffffffffffffffffffffffffffffffffffffffff16141515610a9a57600080fd5b600260008373ffffffffffffffffffffffffffffffffffffffff1673ffffffffffffffffffffffffffffffffffffffff168152602001908152602001600020805480602002602001604051908101604052809291908181526020018280548015610b5957602002820191906000526020600020905b8160009054906101000a900473ffffffffffffffffffffffffffffffffffffffff1673ffffffffffffffffffffffffffffffffffffffff1681526020019060010190808311610b0f575b50505050509050919050565b6000600160003373ffffffffffffffffffffffffffffffffffffffff1673ffffffffffffffffffffffffffffffffffffffff16815260200190815260200160002054905090565b6000809054906101000a900473ffffffffffffffffffffffffffffffffffffffff1673ffffffffffffffffffffffffffffffffffffffff163373ffffffffffffffffffffffffffffffffffffffff16141515610c0757600080fd5b80600160008473ffffffffffffffffffffffffffffffffffffffff1673ffffffffffffffffffffffffffffffffffffffff1681526020019081526020016000206000828254019250508190555080600160008060009054906101000a900473ffffffffffffffffffffffffffffffffffffffff1673ffffffffffffffffffffffffffffffffffffffff1673ffffffffffffffffffffffffffffffffffffffff168152602001908152602001600020600082825403925050819055505050565b60006103e8821415610cd757610d1b565b610d1a89898989898080601f0160208091040260200160405190810160405280939291908181526020018383808284378201915050505050508888600089610521565b5b60008773ffffffffffffffffffffffffffffffffffffffff161415610d8257610d7d89898989898080601f0160208091040260200160405190810160405280939291908181526020018383808284378201915050505050508888600189610521565b610ebf565b610d8b8761100c565b90507f6acf0891607a32827620eab5a44f186365a6e45c1298a0970a0ff481dbaf68b28989838a8a8a8a8a604051808973ffffffffffffffffffffffffffffffffffffffff1673ffffffffffffffffffffffffffffffffffffffff1681526020018873ffffffffffffffffffffffffffffffffffffffff1673ffffffffffffffffffffffffffffffffffffffff1681526020018773ffffffffffffffffffffffffffffffffffffffff1673ffffffffffffffffffffffffffffffffffffffff1681526020018673ffffffffffffffffffffffffffffffffffffffff1673ffffffffffffffffffffffffffffffffffffffff1681526020018060200184815260200183815260200182810382528686828181526020019250808284378201915050995050505050505050505060405180910390a15b505050505050505050565b6000809054906101000a900473ffffffffffffffffffffffffffffffffffffffff1673ffffffffffffffffffffffffffffffffffffffff163373ffffffffffffffffffffffffffffffffffffffff16141515610f2557600080fd5b806000806101000a81548173ffffffffffffffffffffffffffffffffffffffff021916908373ffffffffffffffffffffffffffffffffffffffff16021790555050565b60008060009054906101000a900473ffffffffffffffffffffffffffffffffffffffff1673ffffffffffffffffffffffffffffffffffffffff163373ffffffffffffffffffffffffffffffffffffffff16141515610fc557600080fd5b600160008373ffffffffffffffffffffffffffffffffffffffff1673ffffffffffffffffffffffffffffffffffffffff168152602001908152602001600020549050919050565b600080600260008473ffffffffffffffffffffffffffffffffffffffff1673ffffffffffffffffffffffffffffffffffffffff168152602001908152602001600020805490504381151561105c57fe5b069050600260008473ffffffffffffffffffffffffffffffffffffffff1673ffffffffffffffffffffffffffffffffffffffff168152602001908152602001600020818154811015156110ab57fe5b906000526020600020900160009054906101000a900473ffffffffffffffffffffffffffffffffffffffff16915050919050565b82805482825590600052602060002090810192821561116e579160200282015b8281111561116d57823573ffffffffffffffffffffffffffffffffffffffff168260006101000a81548173ffffffffffffffffffffffffffffffffffffffff021916908373ffffffffffffffffffffffffffffffffffffffff160217905550916020019190600101906110ff565b5b50905061117b9190611193565b5090565b602060405190810160405280600081525090565b6111d391905b808211156111cf57600081816101000a81549073ffffffffffffffffffffffffffffffffffffffff021916905550600101611199565b5090565b905600a165627a7a7230582068373961fd265a2397110a50f1cc8042d0deceaca54e1ab76123123bc13526360029",
  "source": "pragma solidity ^0.4.17;\n\ncontract owned {\n    address public owner;\n\n    function owned() public {\n        owner = msg.sender;\n    }\n\n    modifier onlyOwner {\n        require(msg.sender == owner);\n        _;\n    }\n\n    function transferOwnership(address newOwner) onlyOwner public {\n        owner = newOwner;\n    }\n}\n\ncontract BTM is owned{\n    mapping (address => int256) private balanceOf;//cg: represent balance of each account\n    mapping (address => address[]) atmsOf;//每家银行的atm\n    int constant STATUS_OK = 1000;//表示成功的状态码\n    function BTM(){}\n    \n    //通知操作ATM结束交易\n    event Commit(address _fromAtm, address _debitBank, address _creditBank,  string _trxHash, int256 _amount, int256 _fee, int _status);\n\n    //ATM->Blockchain,通知Blockchain有交易开始\n    function startTrx(address _fromAtm, address _debitBank, address _creditBank,string _trxHash, int256 _amount, int256 _fee) external{\n            var _debitBankAtm = getDestNode(_debitBank);//随机找一台扣款行ATM代理扣款事件\n            CheckDebit( _fromAtm,  _debitBankAtm,  _debitBank, _creditBank,  _trxHash,   _amount,  _fee);    \n    }\n\n    //Blockchain->ATM,通知扣款行ATM进行扣款\n    event CheckDebit(address _fromAtm, address _debitBankAtm, address _debitBank, address _creditBank,  string _trxHash, int256 _amount, int256 _fee);\n    \n    //ATM->Blockchain,代理扣款事件的ATM与扣款行交互完成后，通知Blockchain\n    function confirmDebit(address _fromAtm, address _debitBank, address _creditBank, string _trxHash, int256 _amount, int256 _fee, int _status) external{\n        //状态正常\n        if (_status == STATUS_OK){\n        }\n        //如果状态异常则执行confirmCredit\n        else {\n            confirmCredit( _fromAtm,  _debitBank,  _creditBank,  _trxHash,   _amount,  _fee, false, _status);\n        }\n        //取款是无收款行的，所以期望creditBank为0。且只需直接执行confirmCredit\n        if(_creditBank == 0x0){\n            confirmCredit( _fromAtm,  _debitBank,  _creditBank,  _trxHash,   _amount,  _fee, true, _status);\n        }\n        //其它涉及收款的交易\n        else{\n            var _creditBankAtm = getDestNode(_creditBank);////随机找一台收款行ATM代理收款事件\n            CheckCredit( _fromAtm,  _debitBank,  _creditBankAtm, _creditBank, _trxHash,   _amount,  _fee);\n        }\n    }\n    //Blockchain->ATM,通知收款行ATM进行收款\n    event CheckCredit(address _fromAtm, address _debitBank, address _creditBankAtm,address _creditBank,  string _trxHash, int256 _amount, int256 _fee);//the debit bank has the right to know all transaction information\n    \n    //ATM->Blockchain,通知Blockchain收款完成\n    function confirmCredit(address _fromAtm, address _debitBank, address _creditBank,  string _trxHash, int256 _amount, int256 _fee, bool _feeFrDebitBank, int _status) public{\n        if(_status == STATUS_OK){      \n            balanceOf[_debitBank] -= _amount;//扣款行减账\n            balanceOf[_creditBank] += _amount;//收款行加账\n            if(_feeFrDebitBank){\n                balanceOf[_debitBank] -= _fee;//扣款行支付手续费，如跨行取款，发卡行也即扣款行需要支付手续费给客人操作的ATM \n            }else{\n                balanceOf[_creditBank] -= _fee;//收款行支付手续费，如跨行存款，发卡行也即收款行需要支付手续费给客人操作的ATM       \n            }\n            balanceOf[_fromAtm] += _fee;//客人操作的ATM\n        }        \n        //通知操作ATM交易完成\n        Commit( _fromAtm,  _debitBank,  _creditBank,  _trxHash,   _amount,  _fee, _status);\n    }\n    \n    //添加银行的ATM\n    function setBankATM(address _bankAdd, address[] _atmAdd) external onlyOwner{\n        atmsOf[_bankAdd] = _atmAdd;\n    }\n\n    //返回银行的ATM\n    function getBankAtms(address _bankAdd) external onlyOwner view returns(address[] s){\n        return atmsOf[_bankAdd];\n    }\n\n    //此处随机指定一台ATM做代理操作\n    function getDestNode(address _issueBank) internal returns (address dest){\n        var index = block.number % atmsOf[_issueBank].length;\n        return atmsOf[_issueBank][index];\n    }   \n    \n    //返回帐户余额\n    function getBalance(address _add) external view onlyOwner returns (int256) {\n        return balanceOf[_add];\n    }\n    \n    //返回消息发送者的帐户余额\n    function myBalance() external view returns (int256){\n        return balanceOf[msg.sender];\n    }\n    \n    //move balance between the 'anAccount' and owner account\n    function changeBalance(address anAccount, int256 _amount) external onlyOwner{\n        balanceOf[anAccount] += _amount;\n        balanceOf[owner] -= _amount;\n    }\n   \n    //返回日期\n    function getDate() view returns (uint256 a){\n        return now;\n    }  \n}",
  "sourcePath": "/Users/oueikun/Desktop/BlockchainATM/contracts/BTM.sol",
  "compiler": {
    "name": "solc",
    "version": "0.4.18+commit.9cf6e910.Emscripten.clang"
  },
  "schemaVersion": "1.0.1",
  "updatedAt": "2018-02-10T13:35:27.971Z"
}