{
  "contractName": "BTM",
  "abi": [
    {
      "constant": false,
      "inputs": [
        {
          "name": "blockAccount",
          "type": "address"
        },
        {
          "name": "amount",
          "type": "int256"
        }
      ],
      "name": "setBalance",
      "outputs": [],
      "payable": false,
      "stateMutability": "nonpayable",
      "type": "function"
    },
    {
      "constant": false,
      "inputs": [
        {
          "name": "blockAccount",
          "type": "address"
        },
        {
          "name": "addAmount",
          "type": "int256"
        }
      ],
      "name": "addBalance",
      "outputs": [],
      "payable": false,
      "stateMutability": "nonpayable",
      "type": "function"
    },
    {
      "constant": false,
      "inputs": [
        {
          "name": "trxType",
          "type": "string"
        },
        {
          "name": "debitAccount",
          "type": "string"
        },
        {
          "name": "fromAcc",
          "type": "address"
        },
        {
          "name": "creditAccount",
          "type": "string"
        },
        {
          "name": "toAcc",
          "type": "address"
        },
        {
          "name": "amount",
          "type": "int256"
        }
      ],
      "name": "startTransfer",
      "outputs": [],
      "payable": false,
      "stateMutability": "nonpayable",
      "type": "function"
    },
    {
      "constant": true,
      "inputs": [
        {
          "name": "blockAccount",
          "type": "address"
        }
      ],
      "name": "getBalance",
      "outputs": [
        {
          "name": "",
          "type": "int256"
        }
      ],
      "payable": false,
      "stateMutability": "view",
      "type": "function"
    },
    {
      "anonymous": false,
      "inputs": [
        {
          "indexed": false,
          "name": "trxType",
          "type": "string"
        },
        {
          "indexed": false,
          "name": "debitAccount",
          "type": "string"
        },
        {
          "indexed": false,
          "name": "fromAcc",
          "type": "address"
        },
        {
          "indexed": false,
          "name": "creditAccount",
          "type": "string"
        },
        {
          "indexed": false,
          "name": "toAcc",
          "type": "address"
        },
        {
          "indexed": false,
          "name": "amount",
          "type": "int256"
        },
        {
          "indexed": false,
          "name": "status",
          "type": "bool"
        }
      ],
      "name": "finishTransfer",
      "type": "event"
    }
  ],
  "bytecode": "0x6060604052341561000f57600080fd5b6105ce8061001e6000396000f300606060405260043610610062576000357c0100000000000000000000000000000000000000000000000000000000900463ffffffff1680632b12d30814610067578063342dff5a146100a9578063620e1ae8146100eb578063f8b2cb4f14610188575b600080fd5b341561007257600080fd5b6100a7600480803573ffffffffffffffffffffffffffffffffffffffff169060200190919080359060200190919050506101d5565b005b34156100b457600080fd5b6100e9600480803573ffffffffffffffffffffffffffffffffffffffff1690602001909190803590602001909190505061021c565b005b34156100f657600080fd5b61018660048080359060200190820180359060200191909192908035906020019082018035906020019190919290803573ffffffffffffffffffffffffffffffffffffffff16906020019091908035906020019082018035906020019190919290803573ffffffffffffffffffffffffffffffffffffffff1690602001909190803590602001909190505061026c565b005b341561019357600080fd5b6101bf600480803573ffffffffffffffffffffffffffffffffffffffff169060200190919050506104cd565b6040518082815260200191505060405180910390f35b806000808473ffffffffffffffffffffffffffffffffffffffff1673ffffffffffffffffffffffffffffffffffffffff168152602001908152602001600020819055505050565b806000808473ffffffffffffffffffffffffffffffffffffffff1673ffffffffffffffffffffffffffffffffffffffff168152602001908152602001600020600082825401925050819055505050565b6000806102798784610515565b9150610285848461055d565b90508180156102915750805b156103ad577fce41f0455a14d92ae7e12f5e335f164eae5535d2e9bb0413a26e7b3ff75ce83c8b8b8b8b8b8b8b8b8b60016040518080602001806020018973ffffffffffffffffffffffffffffffffffffffff1673ffffffffffffffffffffffffffffffffffffffff168152602001806020018773ffffffffffffffffffffffffffffffffffffffff1673ffffffffffffffffffffffffffffffffffffffff1681526020018681526020018515151515815260200184810384528e8e82818152602001925080828437820191505084810383528c8c828181526020019250808284378201915050848103825289898281815260200192508082843782019150509d505050505050505050505050505060405180910390a16104c0565b7fce41f0455a14d92ae7e12f5e335f164eae5535d2e9bb0413a26e7b3ff75ce83c8b8b8b8b8b8b8b8b8b60006040518080602001806020018973ffffffffffffffffffffffffffffffffffffffff1673ffffffffffffffffffffffffffffffffffffffff168152602001806020018773ffffffffffffffffffffffffffffffffffffffff1673ffffffffffffffffffffffffffffffffffffffff1681526020018681526020018515151515815260200184810384528e8e82818152602001925080828437820191505084810383528c8c828181526020019250808284378201915050848103825289898281815260200192508082843782019150509d505050505050505050505050505060405180910390a15b5050505050505050505050565b60008060008373ffffffffffffffffffffffffffffffffffffffff1673ffffffffffffffffffffffffffffffffffffffff168152602001908152602001600020549050919050565b6000806000610523856104cd565b9150610532858560000361021c565b61053b856104cd565b90508381830314156105505760019250610555565b600092505b505092915050565b600080600061056b856104cd565b9150610577858561021c565b610580856104cd565b9050838282031415610595576001925061059a565b600092505b5050929150505600a165627a7a72305820d34ee43cc311f5c793c658a92039175737fe9475352cf02b6e5a5aae20e35d4d0029",
  "source": "pragma solidity ^ 0.4.17;\n\ncontract BTM{\n    mapping(address => int256) private balanceOf;//每个区块链账户的余额\n\n    //设置区块链帐户余额 [允许合约内外调用]\n    function setBalance(address blockAccount, int256 amount)external{\n        balanceOf[blockAccount] = amount;\n    }\n    //设置区块链帐户余额,传入账户余额已经要加的数额,如200,-500... addAmount是一个带符号整数 [允许合约内外调用]\n    function addBalance(address blockAccount, int256 addAmount)public{\n        balanceOf[blockAccount] += addAmount;\n\n    }\n    //返回区块链帐户余额 [可在合约内外调用]\n    function getBalance(address blockAccount)public view returns(int256) {\n        return balanceOf[blockAccount];\n    }\n    //ATM->Blockchain,传入扣款账户，收款账户，数额，返回扣款结果 ［无论是存款，取款还是转帐，实际上都是两个区块链之间账户资产的转移］\n    function startTransfer(string trxType, string debitAccount, address fromAcc, string creditAccount, address toAcc, int256 amount)external{\n        bool debitResult = executeDebit(fromAcc, amount);\n        bool creditResult = executeCredit(toAcc, amount);\n        if (debitResult && creditResult) {\n            finishTransfer(trxType, debitAccount, fromAcc, creditAccount, toAcc, amount, true);//交易成功\n        } else {\n            finishTransfer(trxType, debitAccount, fromAcc, creditAccount, toAcc, amount, false);//交易失败，暂且不处理失败\n        }\n    }\n\n    //ATM->Blockchain,传入扣款账户，扣款数额；执行减去扣款账户数额的动作，返回扣款结果\n    function executeDebit(address fromAccount, int256 amount) internal returns(bool){\n        int256 beforeAmount = getBalance(fromAccount);\n        addBalance(fromAccount, 0 - amount);//传入负数\n        int256 afterAmount = getBalance(fromAccount);\n        if (beforeAmount - afterAmount == amount) {\n            return true;//扣款成功\n        } else {\n            return false;\n        }\n    }\n    //ATM->Blockchain,传入收款账户，收款数额；执行增加收款账户数额的动作，返回收款结果\n    function executeCredit(address toAccount, int256 amount) internal returns(bool){\n        int256 beforeAmount = getBalance(toAccount);\n        addBalance(toAccount, amount);//传入整数\n        int256 afterAmount = getBalance(toAccount);\n        if (afterAmount - beforeAmount == amount) {\n            return true;//收款成功\n        } else {\n            return false;\n        }\n    }\n    //Blockchain->ATM,通知操作ATM结束交易\n    event finishTransfer(string trxType, string debitAccount, address fromAcc, string creditAccount, address toAcc, int256 amount, bool status);\n}",
  "sourcePath": "/Users/oueikun/Desktop/BlockchainATM/contracts/BTM.sol",
  "compiler": {
    "name": "solc",
    "version": "0.4.18+commit.9cf6e910.Emscripten.clang"
  },
  "schemaVersion": "1.0.1",
  "updatedAt": "2018-03-03T04:21:28.807Z"
}