{
  "contractName": "BTM",
  "abi": [
    {
      "constant": false,
      "inputs": [
        {
          "name": "blockAccount",
          "type": "address"
        },
        {
          "name": "amount",
          "type": "int256"
        }
      ],
      "name": "setBalance",
      "outputs": [],
      "payable": false,
      "stateMutability": "nonpayable",
      "type": "function"
    },
    {
      "constant": false,
      "inputs": [
        {
          "name": "blockAccount",
          "type": "address"
        },
        {
          "name": "addAmount",
          "type": "int256"
        }
      ],
      "name": "addBalance",
      "outputs": [],
      "payable": false,
      "stateMutability": "nonpayable",
      "type": "function"
    },
    {
      "constant": false,
      "inputs": [
        {
          "name": "fromAccount",
          "type": "address"
        },
        {
          "name": "toAccount",
          "type": "address"
        },
        {
          "name": "amount",
          "type": "int256"
        }
      ],
      "name": "startTransfer",
      "outputs": [],
      "payable": false,
      "stateMutability": "nonpayable",
      "type": "function"
    },
    {
      "constant": true,
      "inputs": [
        {
          "name": "blockAccount",
          "type": "address"
        }
      ],
      "name": "getBalance",
      "outputs": [
        {
          "name": "",
          "type": "int256"
        }
      ],
      "payable": false,
      "stateMutability": "view",
      "type": "function"
    },
    {
      "anonymous": false,
      "inputs": [
        {
          "indexed": false,
          "name": "result",
          "type": "bool"
        }
      ],
      "name": "finishTransfer",
      "type": "event"
    }
  ],
  "bytecode": "0x6060604052341561000f57600080fd5b6103e08061001e6000396000f300606060405260043610610062576000357c0100000000000000000000000000000000000000000000000000000000900463ffffffff1680632b12d30814610067578063342dff5a146100a9578063783d2cfc146100eb578063f8b2cb4f1461014c575b600080fd5b341561007257600080fd5b6100a7600480803573ffffffffffffffffffffffffffffffffffffffff16906020019091908035906020019091905050610199565b005b34156100b457600080fd5b6100e9600480803573ffffffffffffffffffffffffffffffffffffffff169060200190919080359060200190919050506101e0565b005b34156100f657600080fd5b61014a600480803573ffffffffffffffffffffffffffffffffffffffff1690602001909190803573ffffffffffffffffffffffffffffffffffffffff16906020019091908035906020019091905050610230565b005b341561015757600080fd5b610183600480803573ffffffffffffffffffffffffffffffffffffffff169060200190919050506102df565b6040518082815260200191505060405180910390f35b806000808473ffffffffffffffffffffffffffffffffffffffff1673ffffffffffffffffffffffffffffffffffffffff168152602001908152602001600020819055505050565b806000808473ffffffffffffffffffffffffffffffffffffffff1673ffffffffffffffffffffffffffffffffffffffff168152602001908152602001600020600082825401925050819055505050565b60008061023d8584610327565b9150610249848461036f565b90508180156102555750805b1561029b577f2bf58d4366d9ebc5a333b0fab3784fa60b41cd13964659eb902856040a4473ea6001604051808215151515815260200191505060405180910390a16102d8565b7f2bf58d4366d9ebc5a333b0fab3784fa60b41cd13964659eb902856040a4473ea6000604051808215151515815260200191505060405180910390a15b5050505050565b60008060008373ffffffffffffffffffffffffffffffffffffffff1673ffffffffffffffffffffffffffffffffffffffff168152602001908152602001600020549050919050565b6000806000610335856102df565b915061034485856000036101e0565b61034d856102df565b90508381830314156103625760019250610367565b600092505b505092915050565b600080600061037d856102df565b915061038985856101e0565b610392856102df565b90508382820314156103a757600192506103ac565b600092505b5050929150505600a165627a7a72305820fe74d46d1baf1186f7d8310f17b6bea942af2c500ea8eb154a9a77e7ca0ecb750029",
  "source": "pragma solidity ^ 0.4.17;\n\ncontract BTM{\n    mapping(address => int256) private balanceOf;//每个区块链账户的余额\n\n    //设置区块链帐户余额 [允许合约内外调用]\n    function setBalance(address blockAccount, int256 amount)external{\n        balanceOf[blockAccount] = amount;\n    }\n    //设置区块链帐户余额,传入账户余额已经要加的数额,如200,-500... addAmount是一个带符号整数 [允许合约内外调用]\n    function addBalance(address blockAccount, int256 addAmount)public{\n        balanceOf[blockAccount] += addAmount;\n\n    }\n    //返回区块链帐户余额 [可在合约内外调用]\n    function getBalance(address blockAccount)public view returns(int256) {\n        return balanceOf[blockAccount];\n    }\n    //ATM->Blockchain,传入扣款账户，收款账户，数额，返回扣款结果 ［无论是存款，取款还是转帐，实际上都是两个区块链之间账户资产的转移］\n    function startTransfer(address fromAccount, address toAccount, int256 amount)external{\n        bool debitResult = executeDebit(fromAccount, amount);\n        bool creditResult = executeCredit(toAccount, amount);\n        if (debitResult && creditResult) {\n            finishTransfer(true);//交易成功\n        } else {\n            finishTransfer(false);//交易失败，暂且不处理失败\n        }\n    }\n\n    //ATM->Blockchain,传入扣款账户，扣款数额；执行减去扣款账户数额的动作，返回扣款结果\n    function executeDebit(address fromAccount, int256 amount) internal returns(bool){\n        int256 beforeAmount = getBalance(fromAccount);\n        addBalance(fromAccount, 0 - amount);//传入负数\n        int256 afterAmount = getBalance(fromAccount);\n        if (beforeAmount - afterAmount == amount) {\n            return true;//扣款成功\n        } else {\n            return false;\n        }\n    }\n    //ATM->Blockchain,传入收款账户，收款数额；执行增加收款账户数额的动作，返回收款结果\n    function executeCredit(address toAccount, int256 amount) internal returns(bool){\n        int256 beforeAmount = getBalance(toAccount);\n        addBalance(toAccount, amount);//传入整数\n        int256 afterAmount = getBalance(toAccount);\n        if (afterAmount - beforeAmount == amount) {\n            return true;//收款成功\n        } else {\n            return false;\n        }\n    }\n    //Blockchain->ATM,通知操作ATM结束交易\n    event finishTransfer(bool result);\n}",
  "sourcePath": "/Users/oueikun/Desktop/BlockchainATM/contracts/BTM.sol",
  "compiler": {
    "name": "solc",
    "version": "0.4.18+commit.9cf6e910.Emscripten.clang"
  },
  "schemaVersion": "1.0.1",
  "updatedAt": "2018-02-28T14:17:49.071Z"
}