{
  "contractName": "owned",
  "abi": [
    {
      "constant": true,
      "inputs": [],
      "name": "owner",
      "outputs": [
        {
          "name": "",
          "type": "address"
        }
      ],
      "payable": false,
      "stateMutability": "view",
      "type": "function"
    },
    {
      "constant": false,
      "inputs": [
        {
          "name": "newOwner",
          "type": "address"
        }
      ],
      "name": "transferOwnership",
      "outputs": [],
      "payable": false,
      "stateMutability": "nonpayable",
      "type": "function"
    },
    {
      "inputs": [],
      "payable": false,
      "stateMutability": "nonpayable",
      "type": "constructor"
    }
  ],
  "bytecode": "0x6060604052341561000f57600080fd5b336000806101000a81548173ffffffffffffffffffffffffffffffffffffffff021916908373ffffffffffffffffffffffffffffffffffffffff1602179055506101ce8061005e6000396000f30060606040526004361061004c576000357c0100000000000000000000000000000000000000000000000000000000900463ffffffff1680638da5cb5b14610051578063f2fde38b146100a6575b600080fd5b341561005c57600080fd5b6100646100df565b604051808273ffffffffffffffffffffffffffffffffffffffff1673ffffffffffffffffffffffffffffffffffffffff16815260200191505060405180910390f35b34156100b157600080fd5b6100dd600480803573ffffffffffffffffffffffffffffffffffffffff16906020019091905050610104565b005b6000809054906101000a900473ffffffffffffffffffffffffffffffffffffffff1681565b6000809054906101000a900473ffffffffffffffffffffffffffffffffffffffff1673ffffffffffffffffffffffffffffffffffffffff163373ffffffffffffffffffffffffffffffffffffffff1614151561015f57600080fd5b806000806101000a81548173ffffffffffffffffffffffffffffffffffffffff021916908373ffffffffffffffffffffffffffffffffffffffff160217905550505600a165627a7a7230582005f6b73f9f978564d3c4b193dd584701542450e798c6f2cdfd832faa9853abcd0029",
  "source": "pragma solidity ^0.4.17;\n\ncontract owned {\n    address public owner;\n\n    function owned() public {\n        owner = msg.sender;\n    }\n\n    modifier onlyOwner {\n        require(msg.sender == owner);\n        _;\n    }\n\n    function transferOwnership(address newOwner) onlyOwner public {\n        owner = newOwner;\n    }\n}\n\ncontract BTM is owned{\n    mapping (address => int256) private balanceOf;//cg: represent balance of each account\n    mapping (address => address[]) atmsOf;//每家银行的atm\n    int constant STATUS_OK = 1000;//表示成功的状态码\n    function BTM(){}\n    \n    //通知操作ATM结束交易\n    event Commit(address _fromAtm, address _debitBank, address _creditBank,  string _trxHash, int256 _amount, int256 _fee, int _status);\n\n    //ATM->Blockchain,通知Blockchain有交易开始\n    function startTrx(address _fromAtm, address _debitBank, address _creditBank,string _trxHash, int256 _amount, int256 _fee) external{\n            var _debitBankAtm = getDestNode(_debitBank);//随机找一台扣款行ATM代理扣款事件\n            CheckDebit( _fromAtm,  _debitBankAtm,  _debitBank, _creditBank,  _trxHash,   _amount,  _fee);    \n    }\n\n    //Blockchain->ATM,通知扣款行ATM进行扣款\n    event CheckDebit(address _fromAtm, address _debitBankAtm, address _debitBank, address _creditBank,  string _trxHash, int256 _amount, int256 _fee);\n    \n    //ATM->Blockchain,代理扣款事件的ATM与扣款行交互完成后，通知Blockchain\n    function confirmDebit(address _fromAtm, address _debitBank, address _creditBank, string _trxHash, int256 _amount, int256 _fee, int _status) external{\n        //状态正常\n        if (_status == STATUS_OK){\n        }\n        //如果状态异常则执行confirmCredit\n        else {\n            confirmCredit( _fromAtm,  _debitBank,  _creditBank,  _trxHash,   _amount,  _fee, false, _status);\n        }\n        //取款是无收款行的，所以期望creditBank为0。且只需直接执行confirmCredit\n        if(_creditBank == 0x0){\n            confirmCredit( _fromAtm,  _debitBank,  _creditBank,  _trxHash,   _amount,  _fee, true, _status);\n        }\n        //其它涉及收款的交易\n        else{\n            var _creditBankAtm = getDestNode(_creditBank);////随机找一台收款行ATM代理收款事件\n            CheckCredit( _fromAtm,  _debitBank,  _creditBankAtm, _creditBank, _trxHash,   _amount,  _fee);\n        }\n    }\n    //Blockchain->ATM,通知收款行ATM进行收款\n    event CheckCredit(address _fromAtm, address _debitBank, address _creditBankAtm,address _creditBank,  string _trxHash, int256 _amount, int256 _fee);//the debit bank has the right to know all transaction information\n    \n    //ATM->Blockchain,通知Blockchain收款完成\n    function confirmCredit(address _fromAtm, address _debitBank, address _creditBank,  string _trxHash, int256 _amount, int256 _fee, bool _feeFrDebitBank, int _status) public{\n        if(_status == STATUS_OK){      \n            balanceOf[_debitBank] -= _amount;//扣款行减账\n            balanceOf[_creditBank] += _amount;//收款行加账\n            if(_feeFrDebitBank){\n                balanceOf[_debitBank] -= _fee;//扣款行支付手续费，如跨行取款，发卡行也即扣款行需要支付手续费给客人操作的ATM \n            }else{\n                balanceOf[_creditBank] -= _fee;//收款行支付手续费，如跨行存款，发卡行也即收款行需要支付手续费给客人操作的ATM       \n            }\n            balanceOf[_fromAtm] += _fee;//客人操作的ATM\n        }        \n        //通知操作ATM交易完成\n        Commit( _fromAtm,  _debitBank,  _creditBank,  _trxHash,   _amount,  _fee, _status);\n    }\n    \n    //添加银行的ATM\n    function setBankATM(address _bankAdd, address[] _atmAdd) external onlyOwner{\n        atmsOf[_bankAdd] = _atmAdd;\n    }\n\n    //返回银行的ATM\n    function getBankAtms(address _bankAdd) external onlyOwner view returns(address[] s){\n        return atmsOf[_bankAdd];\n    }\n\n    //此处随机指定一台ATM做代理操作\n    function getDestNode(address _issueBank) internal returns (address dest){\n        var index = block.number % atmsOf[_issueBank].length;\n        return atmsOf[_issueBank][index];\n    }   \n    \n    //返回帐户余额\n    function getBalance(address _add) external view onlyOwner returns (int256) {\n        return balanceOf[_add];\n    }\n    \n    //返回消息发送者的帐户余额\n    function myBalance() external view returns (int256){\n        return balanceOf[msg.sender];\n    }\n    \n    //move balance between the 'anAccount' and owner account\n    function changeBalance(address anAccount, int256 _amount) external onlyOwner{\n        balanceOf[anAccount] += _amount;\n        balanceOf[owner] -= _amount;\n    }\n   \n    //返回日期\n    function getDate() view returns (uint256 a){\n        return now;\n    }  \n}",
  "sourcePath": "/Users/oueikun/Desktop/BlockchainATM/contracts/BTM.sol",
  "compiler": {
    "name": "solc",
    "version": "0.4.18+commit.9cf6e910.Emscripten.clang"
  },
  "schemaVersion": "1.0.1",
  "updatedAt": "2018-02-19T07:32:23.523Z"
}